:100000000C943E000C945B000C945B000C945B0021
:100010000C945B000C945B000C945B000C945B00F4
:100020000C945B000C945B000C945B000C945B00E4
:100030000C945B000C945B000C945B000C945B00D4
:100040000C945B000C945B000C945B000C945B00C4
:100050000C945B000C945B000C945B000C945B00B4
:100060000C945B000C945B000C945B000C945B00A4
:100070000C945B000C945B000C945B0011241FBE7D
:10008000CFEFD8E0DEBFCDBF12E0A0E0B1E0E8EEF8
:10009000F3E102C005900D92A231B107D9F722E039
:1000A000A2E1B2E001C01D92A631B207E1F70E94C1
:1000B0001B040C94F2090C940000FC018081806206
:1000C000808384E08A95F1F780818F7D8083089515
:1000D000DF92EF92FF920F931F93CF93DF93D42E73
:1000E0008901C62FD0E090E8899F70011124F901A1
:1000F0008081817280832081CE0134E0959587953F
:100100003A95E1F7880F991F8E29822B8083C801C9
:100110000E945D00F8018081817280836081CC0F34
:10012000DD1FCE71CE29C62BC083C8010E945D00A1
:1001300080E0F3E0FA95F1F700008F5FD812F9CF75
:10014000DF91CF911F910F91FF90EF90DF90089575
:100150009C0144EA61E080E00C9468009C0144EA60
:1001600062E080E00C9468009A01880F6460682B5C
:1001700044E080E00C946800660F4860642B44E023
:10018000849FC0011124682B44E080E00C94680037
:100190009A0144E0649FB0011124606148E0849FAB
:1001A000C0011124682B44E080E00C9468009A019F
:1001B00048E0649FB0011124606240E1849FC00167
:1001C0001124682B44E080E00C9468009B018F7739
:1001D000682F606444E080E00C9468009B01682F05
:1001E000606844E080E00C9468009B0144E0682F64
:1001F00081E00C946800CF93DF93FC01EB0185EA6A
:100200009EE00197F1F700C0000080818172808339
:1002100080818FEF80838881817288838881866066
:10022000888388818E7F8883CB010E945D0080E077
:1002300094E00197F1F700C00000CE010E945D003C
:1002400091E29A95F1F70000CE010E945D008DE0E9
:100250008A95F1F7000088818172888388818460A3
:100260008883CE010E945D009DE09A95F1F7000021
:100270009E0144E06CE280E00E9468009E0140E044
:1002800060E080E00E94BC00CE010E94A800AE01A8
:1002900060E081E00E94B4009E0140E060E081E007
:1002A000DF91CF910C94BC0080ED97E00C94280274
:1002B0003F924F925F926F927F928F929F92AF92F6
:1002C000BF92CF92DF92EF92FF920F931F93CF9343
:1002D000DF93CDB7DEB7CA56D1090FB6F894DEBFAB
:1002E0000FBECDBF6C013B014A0110E00FEFFE01D4
:1002F000ED59FF4F80E0AF01181370C000838F5F8E
:1003000031968830C9F7612FC6010E944B031F5FE9
:10031000183069F781E3E6E1F1E0DE01D296019061
:100320000D928A95E1F781E3E7E4F1E0DE011196B1
:1003300001900D928A95E1F7C6010E948902B12CC5
:10034000A12C8E010E5C1F4FCE0101967C0128016D
:1003500090E2490E511CF8013088108A20E040E0FC
:10036000B801C6010E942A03F801308AF7013088DB
:10037000108A20E040E1B701C6010E942A03F7017C
:10038000308AC4010E9428020F5F1F4FFFEFEF1A4F
:10039000FF0A40165106F9F68FEFA81AB80A6A1438
:1003A0007B0479F6C6010E948902C659DF4F0FB659
:1003B000F894DEBF0FBECDBFDF91CF911F910F919B
:1003C000FF90EF90DF90CF90BF90AF909F908F9075
:1003D0007F906F905F904F903F90089510828FCFE5
:1003E000FC0131969F01281B390B41914111FACF35
:1003F000C90108950F931F93CF93DF93FC01CB01A5
:1004000017860097E1F08F01015F1F4F2EE0C42F88
:10041000D0E0BE010E94E105DC01A850BE4F8C91E6
:10042000D8018E938D012150CB01009711F021113D
:10043000F0CF822F90E001968E0F9F1F04C0CF0156
:100440000E9620E32687DF91CF911F910F9108959B
:1004500030E020E02817390749F0E9EFF0E0319764
:10046000F1F700C000002F5F3F4FF4CF0895CF9306
:10047000DF93EC01CB01188219821A821B825D8303
:100480004C8318861986BA010E94FB004C815D815D
:1004900060E081E00E94B40080E190E00E94F505F8
:1004A0009F838E83DF91CF910895FC018681978190
:1004B0000C9491061F93CF93DF93EC01162F2C81A0
:1004C0003D81462F6B8181E00E94BC001A83DF9141
:1004D000CF911F9108951F93CF93DF93EC01162FB7
:1004E0002C813D814A8181E00E94BC001B83DF9109
:1004F000CF911F910895FC01862F603248F46183EB
:1005000064817581803110F40C94EE00805DFCCF25
:100510000895CF93DF93EC018C819D810E94A80008
:1005200018826981CE01DF91CF910C947B026F928A
:100530007F928F929F92AF92BF92CF92DF92EF9273
:10054000FF920F931F93CF93DF93EC018B01F42E57
:10055000E22ECB010E94F0015C017A808B8060E08A
:10056000CE010E945A0260E0CE010E946B02EE2092
:1005700019F0CE010E9489022FE12F1508F45BC00B
:100580008F2D90E0A501552720E230E0281B390B84
:10059000241735070CF44FC09A2C6C817D81EFE055
:1005A000EF1548F1840F951FEA2C40971CF080E16D
:1005B000E82EEF188F2D0E94EE00602E68016C81EE
:1005C0007D818C2D86198E1530F4F60181916F0195
:1005D0000E94F500F4CF80E40E94EE000E0D111D84
:1005E000E914D8F46C817D81F80181918F010E941A
:1005F000F500E394F5CF80E38F0D0E94EE00E02E2E
:1006000068018C2D8E19891540F46C817D81F6016D
:1006100081916F010E94F500F4CF6981CE010E94A3
:100620007B02672DCE010E945A02682DCE010E94E6
:100630006B02FA0CF882DF91CF911F910F91FF901E
:10064000EF90DF90CF90BF90AF909F908F907F9072
:100650006F9008956115710511F00C94970208953B
:100660000F931F93CF93DF9300D0CDB7DEB78C01EC
:100670001A821982698320E0FC014081BE016F5F0C
:100680007F4F0E949702C8010F900F90DF91CF918A
:100690001F910F910895EF92FF920F931F93CF93A5
:1006A000DF938C01862FEA016830B8F42097A9F017
:1006B000F80164817581880F880F880F0E94E60019
:1006C0007E01F8E0EF0EF11CF801648175818991DB
:1006D0000E94F500CE15DF05B9F7DF91CF911F918C
:1006E0000F91FF90EF900895CF93DF93EC01611588
:1006F000710521F020E048810E942A03CE01DF919C
:10070000CF910895CF93DF93EC017F936F9389E0AE
:1007100092E09F938F938F818F938E818F930E940E
:100720001A076E817F81CE010E9474030F900F9093
:100730000F900F900F900F90CE01DF91CF91089501
:10074000CF93DF93EC017F936F938CE092E09F93C4
:100750008F938F818F938E818F930E941A076E8162
:100760007F81CE010E9474030F900F900F900F9025
:100770000F900F90CE01DF91CF910895CF93DF932B
:10078000EC011F926F938FE092E09F938F938F8184
:100790008F938E818F930E941A076E817F81CE0185
:1007A0000E9474030F900F900F900F900F900F9076
:1007B000CE01DF91CF9108950F931F93CF93DF93D5
:1007C000EC018B016115710561F0288581E0282716
:1007D0004985CE010E942A038885882311F0188656
:1007E0001986C801DF91CF911F910F910895603252
:1007F00020F4FC01618721E0208708950F931F9367
:10080000CF93DF93EC018881082F681708F4062F37
:10081000801B888310E0101731F060E2CE010E9447
:1008200030031F5FF8CF8881811B8883DF91CF91D0
:100830001F910F9108959F92AF92BF92CF92DF9236
:10084000EF92FF920F931F93CF93DF93CDB7DEB755
:10085000AB970FB6F894DEBF0FBECDBF48E250E0B5
:1008600067E270E0CE0142960E94370260E7CE0157
:1008700042960E9430030E94540168E6CE014296DF
:100880000E94300369E60E9430036CE60E94300348
:100890006BE30E9430030E945401CE0142960E94F5
:1008A00089020E94540120E042E068E771E0CE0135
:1008B00042960E942A030E94540163E871E0CE012F
:1008C00042960E9474030E94540169E0CE01429650
:1008D0000E94FE030E9454016FE871E0CE0142962F
:1008E0000E94DC030E94540167ED70E0CE01429645
:1008F0000E94A00360E20E94BE036DE47FEF0E94AD
:10090000A00360E20E94BE0366E070E00E94A003C4
:100910000E945401CE0142960E9489026BE1CE01F1
:1009200042960E94F7036DE971E00E94DC036DE0DE
:10093000CE0142960E94F70362EA71E00E94DC0356
:100940000E94540121E045E16BEA71E0CE0142963C
:100950000E942A030E94540169E0CE0142960E943F
:100960007B0261E0CE0142960E945A020E9454012D
:1009700061E0CE0142960E946B020E94540160E049
:10098000CE0142960E945A020E94540110E0612F4B
:10099000CE0142960E947B0284E690E00E942802EB
:1009A0001F5F1032A1F70E94540160E0CE01429611
:1009B0000E946B0261E0CE0142960E945A02612FB2
:1009C000CE0142960E947B0284E690E00E942802BB
:1009D0001150A8F70E94540160E0CE0142960E9497
:1009E0005A0285EB91E00E94F0017C01CE01429613
:1009F0000E94890284E690E00E94280211E000E053
:100A0000570181E0A81AB10880E1982EC12ED12C9F
:100A1000EC14FD04F8F00A151B04E0F4492D411B09
:100A2000113110F00F5F40E021E0EC14FD0409F0FB
:100A300020E0602F70E06B547E4FCE0142960E9402
:100A40002A03EC14FD0409F01F5F84E690E00E9485
:100A50002802DCCFCE0142960E94890284E690E013
:100A60000E9428020E94540188E0E6E0F1E0DE01E5
:100A7000949601900D928A95E1F7AE014C5D5F4F1F
:100A800063E0CE0142960E944B0321E047E065EE11
:100A900071E0CE0142960E942A030E94540121E097
:100AA0002CA392E09DA384E08EA338E03FA330E125
:100AB00038A729A79AA78BA7AE014C5D5F4F67E0C7
:100AC000CE0142960E944B0310E120E0412F65E4E5
:100AD00071E0CE0142960E942A031F5F1032A9F7EF
:100AE0000E9454014AE050E06AE070E0CE01429674
:100AF0000E9458010E94540148E250E065E070E015
:100B0000CE0142960E9458010E945401CE014296A5
:100B10000E94890201E2602FCE0142960E943003BA
:100B200061E0CE0142960E94FE030F5F003E99F7FE
:100B30006FEFCE0142960E943003115059F70E9488
:100B4000540188E0EEE0F1E0DE015C9601900D9248
:100B50008A95E1F7AE01445E5F4F64E0CE014296B4
:100B60000E944B0381E1E7EEF1E0DE011196019076
:100B70000D928A95E1F7BE016F5F7F4FCE014296DD
:100B80000E94DC03BE016F5F7F4FCE0142960E9440
:100B90007403CE0142960E94550290E080E0AB962D
:100BA0000FB6F894DEBF0FBECDBFDF91CF911F917E
:100BB0000F91FF90EF90DF90CF90BF90AF909F90FC
:100BC0000895AA1BBB1B51E107C0AA1FBB1FA61794
:100BD000B70710F0A61BB70B881F991F5A95A9F7E6
:100BE00080959095BC01CD0108950F931F93CF93ED
:100BF000DF938230910510F482E090E0E0911402DE
:100C0000F091150230E020E0B0E0A0E0309799F4D8
:100C10002115310509F44AC0281B390B2430310550
:100C2000D8F58A819B816115710589F1FB01938358
:100C30008283FE0111C040815181028113814817D6
:100C40005907E0F04817590799F4109761F0129688
:100C50000C93129713961C933296CF01DF91CF918C
:100C60001F910F9108950093140210931502F4CF71
:100C70002115310551F04217530738F0A901DB0166
:100C80009A01BD01DF01F801C1CFEF01F9CF9093C7
:100C9000150280931402CDCFFE01E20FF31F819362
:100CA00091932250310939832883D7CF20911202A2
:100CB00030911302232B41F4209102013091030162
:100CC0003093130220931202209100013091010110
:100CD0002115310541F42DB73EB7409104015091E3
:100CE0000501241B350BE0911202F0911302E2176B
:100CF000F307A0F42E1B3F0B2817390778F0AC013F
:100D00004E5F5F4F2417350748F04E0F5F1F50931B
:100D1000130240931202819391939FCFF0E0E0E0A1
:100D20009CCFCF93DF930097E9F0FC0132971382B9
:100D30001282A0911402B0911502ED0130E020E082
:100D40001097A1F420813181820F931F209112020C
:100D5000309113022817390709F061C0F09313028C
:100D6000E0931202DF91CF910895EA01CE17DF07D9
:100D7000E8F54A815B819E0141155105B1F7E90112
:100D8000FB83EA8349915991C40FD51FEC17FD07E6
:100D900061F4808191810296840F951FE901998306
:100DA0008883828193819B838A83F0E0E0E01296BE
:100DB0008D919C9113970097B9F52D913C911197C6
:100DC000CD010296820F931F2091120230911302DF
:100DD0002817390739F6309751F5109215021092FD
:100DE0001402B0931302A0931202BCCFD383C28328
:100DF00040815181840F951FC817D90761F44E5F58
:100E00005F4F88819981480F591F518340838A81A0
:100E10009B81938382832115310509F0B0CFF09334
:100E20001502E09314029ECFFD01DC01C0CF1382B6
:100E30001282D7CFAEE0B0E0E0E2F7E00C94C9094F
:100E40000D891E8986E08C831A8309838FEF9FE7C3
:100E50009E838D83AE01475E5F4F6F89788DCE0193
:100E600001960E943D072F813885020F131FF8015C
:100E700010822E96E4E00C94E509ABE0B0E0E3E4E8
:100E8000F7E00C94BB097C013B018A01FC0117824D
:100E90001682838181FFC8C1CE0101965C01F701F2
:100EA0009381F30193FD859193FF81913F01882305
:100EB00009F453C1853239F493FD859193FF8191F3
:100EC0003F01853229F4B70190E00E942D09E7CF58
:100ED000912C212C312CFFE1F31538F08B3211F1DC
:100EE00090F4803209F1833229F137FC3CC020EDC7
:100EF000280F2A3050F536FE20C08AE0989E200D3B
:100F00001124922E06C08D3291F0803371F76894CF
:100F100030F8F30193FD859193FF81913F01811199
:100F2000DACF21C0689431F8689432F8F2CF68942F
:100F300033F8EFCF689434F8ECCFEAE02E9E200D22
:100F40001124222E689435F8E4CF8E3229F436FC31
:100F500004C1689436F8DDCF8C3619F4689437F8FC
:100F6000D8CF8836B1F2982F9F7D95549330E0F01A
:100F70008336A1F18337C1F1833509F063C02801BD
:100F8000F2E04F0E511CF801C080D180692D70E055
:100F900036FC02C06FEF7FEFC6010E9417094C01BB
:100FA000689437F882010AC00C5F1F4FFFE3F98392
:100FB00088248394912C6501E89437F833FE2DC082
:100FC000522C8114910471F5552009F468CFB701B2
:100FD00080E290E00E942D095A94F6CFF8018081BA
:100FE00089830E5F1F4FE4CF2801F2E04F0E511CA2
:100FF000F801C080D180692D70E036FC02C06FEF2F
:101000007FEFC6010E9422094C018201D5CFB701B2
:1010100080E290E00E942D092A942814190409F016
:10102000B0F7CECFF60137FC859137FE81916F0185
:10103000B70190E00E942D0951105A94F1E08F1AE7
:101040009108BFCF843619F0893609F077C0F801CE
:1010500037FE6BC060817181828193810C5F1F4F6D
:10106000F32DFF763F2E97FF09C0909580957095E0
:1010700061957F4F8F4F9F4F689437F82AE030E09B
:10108000A5010E945D09C82ECA188C2C432C36FE7F
:101090000CC0E89440F8C91440F434FE05C032FC9A
:1010A00003C0F32DFE7E4F2E892C44FE95C0FE0119
:1010B000EC0DF11D8081803309F087C0242D297E3D
:1010C000422E842D8870582E43FC95C040FE8FC060
:1010D0009C2C821418F42C0C922C981844FE91C06D
:1010E000B70180E390E00E942D0942FE09C088E725
:1010F00090E041FE02C088E590E0B7010E942D0912
:10110000C91408F48AC0CA94D12C9FEFC91AD90A0D
:10111000CA0CDB1CF60182916F01B70190E00E94BE
:101120002D09AC14BD04B1F74FCF60817181072E3A
:10113000000C880B990B0E5F1F4F92CFD32CE894B5
:10114000D4F82AE030E0853739F1232D297FD22EDB
:101150008F3601F148F48835A9F0F701868197812F
:101160002B96E2E10C94D709803749F08837A9F72C
:10117000D4FE02C06894D2F820E130E00DC068943B
:10118000D4F8F6CF34FE03C0822F8660D82E20E13B
:1011900032E002C028E030E0F801D7FE0FC06081E5
:1011A0007181828193810C5F1F4FA5010E945D09AF
:1011B000C82ECA183D2CE89437F867CF608171813A
:1011C00090E080E00E5F1F4FF0CF42FC02C083949E
:1011D00078CF8394839475CF842D867809F471CF6A
:1011E000F6CFB70180E290E00E942D09839482142B
:1011F000C0F3512C73CF522C5818821408F46ECFC0
:10120000F8CF842D867809F47BCF8BE241FE80E213
:1012100047FC8DE2B70190E071CFB70180E390E029
:101220000E942D099A946CCF8FEF9FEF99CFFC010C
:101230000590615070400110D8F7809590958E0F01
:101240009F1F0895FC016150704001900110D8F774
:10125000809590958E0F9F1F08950F931F93CF93A6
:10126000DF93182F092FEB018B8181FD09C01FEF40
:101270000FEF812F902FDF91CF911F910F91089544
:1012800082FF14C02E813F818C819D8128173907F0
:101290003CF4E881F981CF0101969983888310831A
:1012A0008E819F8101969F838E83E3CFE885F985A8
:1012B000812F0995892BA1F3DACFFA01AA272830CB
:1012C00051F1203181F1E8946F936E7F6E5F7F4F13
:1012D0008F4F9F4FAF4FB1E03ED0B4E03CD0670F8F
:1012E000781F891F9A1FA11D680F791F8A1F911DE2
:1012F000A11D6A0F711D811D911DA11D20D009F432
:1013000068943F912AE0269F11243019305D319373
:10131000DEF6CF010895462F4770405D4193B3E05C
:101320000FD0C9F7F6CF462F4F70405D4A3318F003
:10133000495D31FD4052419302D0A9F7EACFB4E0B4
:10134000A6959795879577956795BA95C9F700976C
:101350006105710508959B01AC010A2E069457950D
:10136000479537952795BA95C9F7620F731F841F64
:10137000951FA01D08952F923F924F925F926F92FA
:101380007F928F929F92AF92BF92CF92DF92EF9215
:10139000FF920F931F93CF93DF93CDB7DEB7CA1B96
:1013A000DB0B0FB6F894DEBF0FBECDBF09942A88C1
:1013B000398848885F846E847D848C849B84AA8469
:1013C000B984C884DF80EE80FD800C811B81AA81F6
:1013D000B981CE0FD11D0FB6F894DEBF0FBECDBFC1
:0813E000ED010895F894FFCF20
:1013E800000016022000040A1F0404040403020477
:1013F8000E111F100E00200705040302020101014F
:10140800020203040507202020202020202020207D
:1014180020202020202020070504030202010101CA
:10142800020203040507002020202020202020207D
:10143800202020202020202008020304050506067D
:101448000605050403020820202020202020202053
:1014580020202020202020007072656D696572654B
:10146800202100776F6F6F6F777777202121006ECB
:101478006F757665617520747275632000616C6C98
:101488006F006F68206F75692021007E2079656183
:101498006821207F00626F6E6A6F7572206C65200C
:1014A8006D6F6E64652E20766F69636920756E6551
:1014B8002062616E6E696572652064652074657866
:1014C8007465202100030046696E206465206C6104
:1014D8002064046D6F2021003031323334353637C3
:1014E80038396162636465660025750025690025E1
:0214F80063008F
:00000001FF
