:100000000C943E000C9448000C9448000C9448005A
:100010000C9448000C9448000C9448000C94480040
:100020000C9448000C9448000C9448000C94480030
:100030000C9448000C9448000C9448000C94480020
:100040000C9448000C9448000C9448000C94480010
:100050000C9448000C9448000C9448000C94480000
:100060000C9448000C9448000C9448000C944800F0
:100070000C9448000C9448000C94480011241FBEB6
:10008000CFEFD8E0DEBFCDBF0E94AE000C94B5002C
:100090000C940000E0E8F0E08081816A8083E1E870
:1000A000F0E08081826080830895CF93DF93C82F32
:1000B000D62F8AB1806A8AB90E944A00D13069F08D
:1000C00028F0D23061F0DF91CF9108955E98D0E0B2
:1000D000D0938900C0938800F6CF5E9AF8CF109233
:1000E000890010928800EFCFCF93DF93C82FD62FCF
:1000F0008AB180658AB90E944A00D13069F028F03F
:10010000D23061F0DF91CF9108955F98D0E0D09325
:100110008B00C0938A00F6CF5F9AF8CF10928B00C5
:1001200010928A00EFCF623469F018F4613431F034
:100130000895633459F0643469F008959FEF91B9DC
:1001400082B908959FEF94B985B908959FEF97B943
:1001500088B908959FEF9AB98BB9089560E08AEF46
:0E0160000E94550090E080E00895F894FFCFD3
:00000001FF
